{
  "_format": "hh-sol-artifact-1",
  "contractName": "ERC20Staking",
  "sourceName": "contracts/Erc20Staking.sol",
  "abi": [
    {
      "inputs": [
        {
          "internalType": "address",
          "name": "tokenAddress",
          "type": "address"
        },
        {
          "internalType": "address",
          "name": "_staker",
          "type": "address"
        }
      ],
      "name": "calculateReward",
      "outputs": [
        {
          "internalType": "uint256",
          "name": "",
          "type": "uint256"
        }
      ],
      "stateMutability": "view",
      "type": "function"
    },
    {
      "inputs": [
        {
          "internalType": "address",
          "name": "tokenAddress",
          "type": "address"
        }
      ],
      "name": "checkBalance",
      "outputs": [
        {
          "internalType": "uint256",
          "name": "",
          "type": "uint256"
        }
      ],
      "stateMutability": "view",
      "type": "function"
    },
    {
      "inputs": [
        {
          "internalType": "address",
          "name": "",
          "type": "address"
        }
      ],
      "name": "userStake",
      "outputs": [
        {
          "internalType": "uint256",
          "name": "stakingAmount",
          "type": "uint256"
        },
        {
          "internalType": "uint256",
          "name": "stakeDuration",
          "type": "uint256"
        },
        {
          "internalType": "uint256",
          "name": "stakingOnset",
          "type": "uint256"
        },
        {
          "internalType": "bool",
          "name": "isStake",
          "type": "bool"
        }
      ],
      "stateMutability": "view",
      "type": "function"
    },
    {
      "inputs": [
        {
          "internalType": "address",
          "name": "tokenAddress",
          "type": "address"
        },
        {
          "internalType": "uint256",
          "name": "_stakingAmount",
          "type": "uint256"
        },
        {
          "internalType": "uint256",
          "name": "_stakeDuration",
          "type": "uint256"
        }
      ],
      "name": "userStakeDeposit",
      "outputs": [],
      "stateMutability": "nonpayable",
      "type": "function"
    },
    {
      "inputs": [
        {
          "internalType": "address",
          "name": "tokenAddress",
          "type": "address"
        }
      ],
      "name": "withdrawStake",
      "outputs": [],
      "stateMutability": "nonpayable",
      "type": "function"
    }
  ],
  "bytecode": "0x6080604052348015600f57600080fd5b506110338061001f6000396000f3fe608060405234801561001057600080fd5b50600436106100575760003560e01c80635f5152261461005c57806368e5585d1461008c5780637ca44fcf146100bf578063a0a9aa1e146100ef578063c23a5cea1461010b575b600080fd5b6100766004803603810190610071919061094e565b610127565b6040516100839190610994565b60405180910390f35b6100a660048036038101906100a1919061094e565b61013a565b6040516100b694939291906109ca565b60405180910390f35b6100d960048036038101906100d49190610a0f565b610177565b6040516100e69190610994565b60405180910390f35b61010960048036038101906101049190610a7b565b6102a5565b005b6101256004803603810190610120919061094e565b610666565b005b60006101338233610177565b9050919050565b60006020528060005260406000206000915090508060000154908060010154908060020154908060030160009054906101000a900460ff16905084565b6000806000808473ffffffffffffffffffffffffffffffffffffffff1673ffffffffffffffffffffffffffffffffffffffff1681526020019081526020016000206040518060800160405290816000820154815260200160018201548152602001600282015481526020016003820160009054906101000a900460ff16151515158152505090508060600151610242576040517f08c379a000000000000000000000000000000000000000000000000000000000815260040161023990610b2b565b60405180910390fd5b806020015181604001516102569190610b7a565b42106102965760006064601483600001516102719190610bae565b61027b9190610c1f565b905080826000015161028d9190610b7a565b9250505061029f565b80600001519150505b92915050565b600073ffffffffffffffffffffffffffffffffffffffff163373ffffffffffffffffffffffffffffffffffffffff1603610314576040517f08c379a000000000000000000000000000000000000000000000000000000000815260040161030b90610c9c565b60405180910390fd5b60008211610357576040517f08c379a000000000000000000000000000000000000000000000000000000000815260040161034e90610d08565b60405180910390fd5b60008373ffffffffffffffffffffffffffffffffffffffff166370a08231336040518263ffffffff1660e01b81526004016103929190610d37565b602060405180830381865afa1580156103af573d6000803e3d6000fd5b505050506040513d601f19601f820116820180604052508101906103d39190610d67565b905082811015610418576040517f08c379a000000000000000000000000000000000000000000000000000000000815260040161040f90610de0565b60405180910390fd5b60008060003373ffffffffffffffffffffffffffffffffffffffff1673ffffffffffffffffffffffffffffffffffffffff1681526020019081526020016000206040518060800160405290816000820154815260200160018201548152602001600282015481526020016003820160009054906101000a900460ff16151515158152505090508060600151156104e3576040517f08c379a00000000000000000000000000000000000000000000000000000000081526004016104da90610e4c565b60405180910390fd5b6000429050600062278d00856104f99190610bae565b90508673ffffffffffffffffffffffffffffffffffffffff166323b872dd3330896040518463ffffffff1660e01b815260040161053893929190610e6c565b6020604051808303816000875af1158015610557573d6000803e3d6000fd5b505050506040513d601f19601f8201168201806040525081019061057b9190610ecf565b6105ba576040517f08c379a00000000000000000000000000000000000000000000000000000000081526004016105b190610f48565b60405180910390fd5b6040518060800160405280878152602001828152602001838152602001600115158152506000803373ffffffffffffffffffffffffffffffffffffffff1673ffffffffffffffffffffffffffffffffffffffff16815260200190815260200160002060008201518160000155602082015181600101556040820151816002015560608201518160030160006101000a81548160ff02191690831515021790555090505050505050505050565b60008060003373ffffffffffffffffffffffffffffffffffffffff1673ffffffffffffffffffffffffffffffffffffffff1681526020019081526020016000206040518060800160405290816000820154815260200160018201548152602001600282015481526020016003820160009054906101000a900460ff16151515158152505090508060600151610730576040517f08c379a000000000000000000000000000000000000000000000000000000000815260040161072790610b2b565b60405180910390fd5b806020015181604001516107449190610b7a565b421015610786576040517f08c379a000000000000000000000000000000000000000000000000000000000815260040161077d90610fb4565b60405180910390fd5b600060646014836000015161079b9190610bae565b6107a59190610c1f565b905060008183600001516107b99190610b7a565b90506000803373ffffffffffffffffffffffffffffffffffffffff1673ffffffffffffffffffffffffffffffffffffffff168152602001908152602001600020600080820160009055600182016000905560028201600090556003820160006101000a81549060ff021916905550508373ffffffffffffffffffffffffffffffffffffffff1663a9059cbb33836040518363ffffffff1660e01b8152600401610863929190610fd4565b6020604051808303816000875af1158015610882573d6000803e3d6000fd5b505050506040513d601f19601f820116820180604052508101906108a69190610ecf565b6108e5576040517f08c379a00000000000000000000000000000000000000000000000000000000081526004016108dc90610f48565b60405180910390fd5b50505050565b600080fd5b600073ffffffffffffffffffffffffffffffffffffffff82169050919050565b600061091b826108f0565b9050919050565b61092b81610910565b811461093657600080fd5b50565b60008135905061094881610922565b92915050565b600060208284031215610964576109636108eb565b5b600061097284828501610939565b91505092915050565b6000819050919050565b61098e8161097b565b82525050565b60006020820190506109a96000830184610985565b92915050565b60008115159050919050565b6109c4816109af565b82525050565b60006080820190506109df6000830187610985565b6109ec6020830186610985565b6109f96040830185610985565b610a0660608301846109bb565b95945050505050565b60008060408385031215610a2657610a256108eb565b5b6000610a3485828601610939565b9250506020610a4585828601610939565b9150509250929050565b610a588161097b565b8114610a6357600080fd5b50565b600081359050610a7581610a4f565b92915050565b600080600060608486031215610a9457610a936108eb565b5b6000610aa286828701610939565b9350506020610ab386828701610a66565b9250506040610ac486828701610a66565b9150509250925092565b600082825260208201905092915050565b7f4e6f20616374697665207374616b650000000000000000000000000000000000600082015250565b6000610b15600f83610ace565b9150610b2082610adf565b602082019050919050565b60006020820190508181036000830152610b4481610b08565b9050919050565b7f4e487b7100000000000000000000000000000000000000000000000000000000600052601160045260246000fd5b6000610b858261097b565b9150610b908361097b565b9250828201905080821115610ba857610ba7610b4b565b5b92915050565b6000610bb98261097b565b9150610bc48361097b565b9250828202610bd28161097b565b91508282048414831517610be957610be8610b4b565b5b5092915050565b7f4e487b7100000000000000000000000000000000000000000000000000000000600052601260045260246000fd5b6000610c2a8261097b565b9150610c358361097b565b925082610c4557610c44610bf0565b5b828204905092915050565b7f5a65726f20616464726573732064657465637465640000000000000000000000600082015250565b6000610c86601583610ace565b9150610c9182610c50565b602082019050919050565b60006020820190508181036000830152610cb581610c79565b9050919050565b7f43616e2774206465706f736974207a65726f0000000000000000000000000000600082015250565b6000610cf2601283610ace565b9150610cfd82610cbc565b602082019050919050565b60006020820190508181036000830152610d2181610ce5565b9050919050565b610d3181610910565b82525050565b6000602082019050610d4c6000830184610d28565b92915050565b600081519050610d6181610a4f565b92915050565b600060208284031215610d7d57610d7c6108eb565b5b6000610d8b84828501610d52565b91505092915050565b7f496e73756666696369656e7420616d6f756e7400000000000000000000000000600082015250565b6000610dca601383610ace565b9150610dd582610d94565b602082019050919050565b60006020820190508181036000830152610df981610dbd565b9050919050565b7f5573657220616c7265616479207374616b656400000000000000000000000000600082015250565b6000610e36601383610ace565b9150610e4182610e00565b602082019050919050565b60006020820190508181036000830152610e6581610e29565b9050919050565b6000606082019050610e816000830186610d28565b610e8e6020830185610d28565b610e9b6040830184610985565b949350505050565b610eac816109af565b8114610eb757600080fd5b50565b600081519050610ec981610ea3565b92915050565b600060208284031215610ee557610ee46108eb565b5b6000610ef384828501610eba565b91505092915050565b7f546f6b656e207472616e73666572206661696c65640000000000000000000000600082015250565b6000610f32601583610ace565b9150610f3d82610efc565b602082019050919050565b60006020820190508181036000830152610f6181610f25565b9050919050565b7f5374616b696e6720706572696f64206e6f7420796574206f7665720000000000600082015250565b6000610f9e601b83610ace565b9150610fa982610f68565b602082019050919050565b60006020820190508181036000830152610fcd81610f91565b9050919050565b6000604082019050610fe96000830185610d28565b610ff66020830184610985565b939250505056fea264697066735822122023e999db222ce415c363f1f66b0319c45086b68bc63180e19eff87ef3c28768364736f6c634300081b0033",
  "linkReferences": {},
  "deployedLinkReferences": {}
}