{
  "_format": "hh-sol-artifact-1",
  "contractName": "EtherStaking",
  "sourceName": "contracts/EtherStaking.sol",
  "abi": [
    {
      "inputs": [
        {
          "internalType": "address",
          "name": "_staker",
          "type": "address"
        }
      ],
      "name": "calculateReward",
      "outputs": [
        {
          "internalType": "uint256",
          "name": "",
          "type": "uint256"
        }
      ],
      "stateMutability": "view",
      "type": "function"
    },
    {
      "inputs": [],
      "name": "checkBalance",
      "outputs": [
        {
          "internalType": "uint256",
          "name": "",
          "type": "uint256"
        }
      ],
      "stateMutability": "view",
      "type": "function"
    },
    {
      "inputs": [
        {
          "internalType": "uint256",
          "name": "_stakingAmount",
          "type": "uint256"
        },
        {
          "internalType": "uint256",
          "name": "_stakeDuration",
          "type": "uint256"
        }
      ],
      "name": "userStakeDeposit",
      "outputs": [],
      "stateMutability": "payable",
      "type": "function"
    },
    {
      "inputs": [],
      "name": "withdrawStake",
      "outputs": [],
      "stateMutability": "nonpayable",
      "type": "function"
    }
  ],
  "bytecode": "0x6080604052348015600f57600080fd5b50610b018061001f6000396000f3fe60806040526004361061003f5760003560e01c806365256b2014610044578063bed9d86114610060578063c71daccb14610077578063d82e3962146100a2575b600080fd5b61005e600480360381019061005991906106a4565b6100df565b005b34801561006c57600080fd5b5061007561031e565b005b34801561008357600080fd5b5061008c61052c565b60405161009991906106f3565b60405180910390f35b3480156100ae57600080fd5b506100c960048036038101906100c4919061076c565b61053c565b6040516100d691906106f3565b60405180910390f35b600073ffffffffffffffffffffffffffffffffffffffff163373ffffffffffffffffffffffffffffffffffffffff160361014e576040517f08c379a0000000000000000000000000000000000000000000000000000000008152600401610145906107f6565b60405180910390fd5b60008211610191576040517f08c379a000000000000000000000000000000000000000000000000000000000815260040161018890610862565b60405180910390fd5b60008060003373ffffffffffffffffffffffffffffffffffffffff1673ffffffffffffffffffffffffffffffffffffffff1681526020019081526020016000206040518060800160405290816000820154815260200160018201548152602001600282015481526020016003820160009054906101000a900460ff161515151581525050905080606001511561025c576040517f08c379a0000000000000000000000000000000000000000000000000000000008152600401610253906108ce565b60405180910390fd5b6000429050600062278d0084610272919061091d565b90506040518060800160405280868152602001828152602001838152602001600115158152506000803373ffffffffffffffffffffffffffffffffffffffff1673ffffffffffffffffffffffffffffffffffffffff16815260200190815260200160002060008201518160000155602082015181600101556040820151816002015560608201518160030160006101000a81548160ff0219169083151502179055509050505050505050565b60008060003373ffffffffffffffffffffffffffffffffffffffff1673ffffffffffffffffffffffffffffffffffffffff1681526020019081526020016000206040518060800160405290816000820154815260200160018201548152602001600282015481526020016003820160009054906101000a900460ff161515151581525050905080606001516103e8576040517f08c379a00000000000000000000000000000000000000000000000000000000081526004016103df906109ab565b60405180910390fd5b806020015181604001516103fc91906109cb565b42101561043e576040517f08c379a000000000000000000000000000000000000000000000000000000000815260040161043590610a4b565b60405180910390fd5b6000606460148360000151610453919061091d565b61045d9190610a9a565b9050600081836000015161047191906109cb565b90506000803373ffffffffffffffffffffffffffffffffffffffff1673ffffffffffffffffffffffffffffffffffffffff168152602001908152602001600020600080820160009055600182016000905560028201600090556003820160006101000a81549060ff021916905550503373ffffffffffffffffffffffffffffffffffffffff166108fc829081150290604051600060405180830381858888f19350505050158015610526573d6000803e3d6000fd5b50505050565b60006105373361053c565b905090565b6000806000808473ffffffffffffffffffffffffffffffffffffffff1673ffffffffffffffffffffffffffffffffffffffff1681526020019081526020016000206040518060800160405290816000820154815260200160018201548152602001600282015481526020016003820160009054906101000a900460ff16151515158152505090508060600151610607576040517f08c379a00000000000000000000000000000000000000000000000000000000081526004016105fe906109ab565b60405180910390fd5b8060200151816040015161061b91906109cb565b421061065b576000606460148360000151610636919061091d565b6106409190610a9a565b905080826000015161065291906109cb565b92505050610664565b80600001519150505b919050565b600080fd5b6000819050919050565b6106818161066e565b811461068c57600080fd5b50565b60008135905061069e81610678565b92915050565b600080604083850312156106bb576106ba610669565b5b60006106c98582860161068f565b92505060206106da8582860161068f565b9150509250929050565b6106ed8161066e565b82525050565b600060208201905061070860008301846106e4565b92915050565b600073ffffffffffffffffffffffffffffffffffffffff82169050919050565b60006107398261070e565b9050919050565b6107498161072e565b811461075457600080fd5b50565b60008135905061076681610740565b92915050565b60006020828403121561078257610781610669565b5b600061079084828501610757565b91505092915050565b600082825260208201905092915050565b7f5a65726f20616464726573732064657465637465640000000000000000000000600082015250565b60006107e0601583610799565b91506107eb826107aa565b602082019050919050565b6000602082019050818103600083015261080f816107d3565b9050919050565b7f43616e2774206465706f736974207a65726f0000000000000000000000000000600082015250565b600061084c601283610799565b915061085782610816565b602082019050919050565b6000602082019050818103600083015261087b8161083f565b9050919050565b7f5573657220616c7265616479207374616b656400000000000000000000000000600082015250565b60006108b8601383610799565b91506108c382610882565b602082019050919050565b600060208201905081810360008301526108e7816108ab565b9050919050565b7f4e487b7100000000000000000000000000000000000000000000000000000000600052601160045260246000fd5b60006109288261066e565b91506109338361066e565b92508282026109418161066e565b91508282048414831517610958576109576108ee565b5b5092915050565b7f4e6f20616374697665207374616b650000000000000000000000000000000000600082015250565b6000610995600f83610799565b91506109a08261095f565b602082019050919050565b600060208201905081810360008301526109c481610988565b9050919050565b60006109d68261066e565b91506109e18361066e565b92508282019050808211156109f9576109f86108ee565b5b92915050565b7f5374616b696e6720706572696f64206e6f7420796574206f7665720000000000600082015250565b6000610a35601b83610799565b9150610a40826109ff565b602082019050919050565b60006020820190508181036000830152610a6481610a28565b9050919050565b7f4e487b7100000000000000000000000000000000000000000000000000000000600052601260045260246000fd5b6000610aa58261066e565b9150610ab08361066e565b925082610ac057610abf610a6b565b5b82820490509291505056fea2646970667358221220bc6a55eacd142932b9a157ededd270b4853c39c4ef108af365b742a08331380964736f6c634300081b0033",
  "linkReferences": {},
  "deployedLinkReferences": {}
}